:100000000C942A000C943F000C943F000C943F0089
:100010000C943F000C943F000C943F000C943F0064
:100020000C943F000C943F000C943F000C943F0054
:100030000C943F000C943F000C943F000C943F0044
:100040000C943F000C943F000C943F000C943F0034
:100050000C943F0011241FBECFE5D8E0DEBFCDBF1A
:1000600011E0A0E6B0E0EAE0F7E002C005900D92F2
:10007000A230B107D9F70E9444020C9483030C9478
:100080000000982F9770869586958695813021F18E
:1000900030F08230F1F1833009F458C008956130B6
:1000A00069F44BB321E030E0B90102C0660F771F5D
:1000B0009A95E2F7CB01842B8BBB08954BB321E0DB
:1000C00030E0B90102C0660F771F9A95E2F7CB01C5
:1000D000809584238BBB0895613069F448B321E097
:1000E00030E0B90102C0660F771F9A95E2F7CB01A5
:1000F000842B88BB089548B321E030E0B90102C0E9
:10010000660F771F9A95E2F7CB018095842388BB11
:100110000895613069F445B321E030E0B90102C0CF
:10012000660F771F9A95E2F7CB01842B85BB089564
:1001300045B321E030E0B90102C0660F771F9A9500
:10014000E2F7CB018095842385BB0895613069F483
:1001500042B321E030E0B90102C0660F771F9A95E3
:10016000E2F7CB01842B82BB089542B321E030E05B
:10017000B90102C0660F771F9A95E2F7CB0180950F
:10018000842382BB0895E0E6F0E080E041E050E0A7
:10019000282F2770982F969596959695913009F16E
:1001A00030F09230C1F1933009F44FC067C09081B4
:1001B000913059F49AB3BA0102C0660F771F2A959D
:1001C000E2F79B01292B2ABB59C03AB3BA0102C0FE
:1001D000660F771F2A95E2F7962F909593239ABB87
:1001E0004DC09081913059F497B3BA0102C0660FA7
:1001F000771F2A95E2F79B01292B27BB3FC037B316
:10020000BA0102C0660F771F2A95E2F7962F9095E4
:10021000932397BB33C09081913059F494B3BA01C2
:1002200002C0660F771F2A95E2F79B01292B24BB9A
:1002300025C034B3BA0102C0660F771F2A95E2F7D2
:10024000962F9095932394BB19C09081913059F4C7
:1002500091B3BA0102C0660F771F2A95E2F79B019E
:10026000292B21BB0BC031B3BA0102C0660F771F27
:100270002A95E2F7962F9095932391BB8F5F329644
:10028000803209F085CF0895CF93C82F8BB38F703C
:100290009C2F907F892B8BBB60E089E00E944100FE
:1002A00061E08BE00E9441008FE891E00197F1F757
:1002B00000C0000060E08BE00E9441008FE19EE4FE
:1002C0000197F1F700C000008BB3282F2F7030E1A9
:1002D000C39FC0011124822B8BBB60E089E00E9488
:1002E000410061E08BE00E9441008FE891E00197BE
:1002F000F1F700C0000060E08BE00E944100CF9168
:10030000089560E08AE00E9441002FEF89EF90E0BD
:10031000215080409040E1F700C0000083E30E943C
:1003200044018FE193E00197F1F700C0000082E300
:100330000E94440188E20E94440186E00E94440138
:100340008CE00E94440181E00E9444018FE39FE120
:100350000197F1F700C000000895CF93C82F8BB329
:100360008F709C2F907F892B8BBB61E089E00E946E
:10037000410061E08BE00E9441008FE891E001972D
:10038000F1F700C0000060E08BE00E9441008FE1C7
:100390009EE40197F1F700C000008BB3282F2F7067
:1003A00030E1C39FC0011124822B8BBB61E089E047
:1003B0000E94410061E08BE00E9441008FE891E0E3
:1003C0000197F1F700C0000060E08BE00E9441005F
:1003D000CF9108950F931F93CF93FC0180818823C1
:1003E00059F08F01C0E00E94AD01CF5FF801EC0F22
:1003F000F11D80818111F7CFCF911F910F91089549
:10040000CF93DF93EC01613019F0623051F011C0ED
:10041000842F8F7080680E944401CE010E94EA01FF
:1004200008C0842F8F70806C0E944401CE010E940E
:10043000EA01DF91CF910895CF93DF9300D000D0F0
:100440001F92CDB7DEB78AE00E9423034AE0BE01C7
:100450006F5F7F4F90E00E944E034EE062E0CE015E
:1004600001960E9400022FEF89E698E1215080401A
:100470009040E1F700C000000F900F900F900F9098
:100480000F90DF91CF9108950E94C3000E948101D7
:100490000E94280380E00E94100380EA90E00E94FE
:1004A0003803C49840E061E088EA90E00E940002CE
:1004B00040E062E085EB90E00E9400020E941C0296
:1004C0000E943403C82F813389F482EC90E00E94AB
:1004D000380381E00E9423032FEF83EC99E0215041
:1004E00080409040E1F700C0000026C0823389F4CC
:1004F00089EC90E00E94380382E00E9423032FEFF2
:1005000083EC99E0215080409040E1F700C000006A
:1005100026C0833389F480ED90E00E94380383E0A5
:100520000E9423032FEF83EC99E0215080409040FC
:10053000E1F700C0000026C0C43389F487ED90E0E5
:100540000E94380384E00E9423032FEF83EC99E09C
:10055000215080409040E1F700C0000026C0C53324
:1005600089F48EED90E00E94380385E00E94230319
:100570002FEF83EC99E0215080409040E1F700C0DC
:10058000000026C0C63389F485EE90E00E9438034F
:1005900086E00E9423032FEF83EC99E021508040F6
:1005A0009040E1F700C0000026C0C73389F48CEE0C
:1005B00090E00E94380387E00E9423032FEF83EC32
:1005C00099E0215080409040E1F700C0000025C034
:1005D000C83389F483EF90E00E94380388E00E94DA
:1005E00023032FEF83EC99E0215080409040E1F706
:1005F00000C0000012C0C93381F48AEF90E00E946D
:10060000380389E00E9423032FEF83EC99E0215007
:1006100080409040E1F700C000000E941C024ECFD5
:10062000882319F0813049F0089587B3806B87BB28
:10063000BE98C49A6C9A6E9A089587B38F7487BBDC
:10064000BE9A6E9A08958FB9779BFECF8FB10895A9
:1006500088E18AB986E880BD87E689B910BC08952B
:100660005D9BFECF8CB908955F9BFECF8CB1089542
:100670000F931F93CF93FC018081882359F08F0142
:10068000C0E00E943003CF5FF801EC0FF11D8081C4
:100690008111F7CFCF911F910F910895BB274A3059
:1006A00031F4992322F4BDE2909581959F4F0C94EB
:1006B0005A03BB27FB015527AA27880F991FAA1F9A
:1006C000A41710F0A41B83955051B9F7A05DAA336D
:1006D00008F0A95DA193009779F7B111B193119238
:1006E000CB010C947303DC01FC01672F719177231C
:1006F000E1F7329704C07C916D9370836291AE17DD
:0A070000BF07C8F30895F894FFCF77
:10070A0001010101010101010101010101010101CF
:10071A0001010101010101010101010101010101BF
:10072A0001010101010101010101010101010101AF
:10073A0000010101010101010101010101010101A0
:10074A0055415254204F4E0057656C636F6D6520BA
:10075A004A6F686E0054656D706572617475726572
:10076A003A0053656E7420310053656E742032006E
:10077A0053656E7420330053656E742034005365DC
:10078A006E7420350053656E7420360053656E749E
:10079A0020370053656E7420380053656E74203913
:0207AA0000004D
:00000001FF
