:100000000C9433000C9448000C9448000C94480065
:100010000C9448000C9448000C9448000C94480040
:100020000C9448000C9448000C9448000C94480030
:100030000C9448000C9448000C9448000C94480020
:100040000C9448000C9448000C9448000C94480010
:100050000C9448009302AE02C902E402FF021A03A4
:1000600035034F03690311241FBECFE5D8E0DEBF7F
:10007000CDBF11E0A0E6B0E0E8E3F7E002C00590F4
:100080000D92A230B107D9F70E9479020C949A031D
:100090000C94000087B1806C87B986B1876886B9F7
:1000A000089597B1907E8F71892B87B9369A349BCA
:1000B000FECF349A84B125B190E0922B089588EC5C
:1000C00090E09BBD8ABD81E88FBD8AE08EBD08951A
:1000D000813019F0823051F0089561E085E10E948D
:1000E000880060E086E10E948800089560E085E174
:1000F0000E94880061E086E10E948800089560E027
:1001000085E10E94880060E086E10E9488000895F1
:10011000982F9770869586958695813021F130F0DD
:100120008230F1F1833009F458C00895613069F4E8
:100130004BB321E030E0B90102C0660F771F9A95FA
:10014000E2F7CB01842B8BBB08954BB321E030E069
:10015000B90102C0660F771F9A95E2F7CB0180952F
:1001600084238BBB0895613069F448B321E030E00B
:10017000B90102C0660F771F9A95E2F7CB01842B75
:1001800088BB089548B321E030E0B90102C0660F92
:10019000771F9A95E2F7CB018095842388BB089559
:1001A000613069F445B321E030E0B90102C0660F67
:1001B000771F9A95E2F7CB01842B85BB089545B351
:1001C00021E030E0B90102C0660F771F9A95E2F78F
:1001D000CB018095842385BB0895613069F442B3D7
:1001E00021E030E0B90102C0660F771F9A95E2F76F
:1001F000CB01842B82BB089542B321E030E0B901EA
:1002000002C0660F771F9A95E2F7CB018095842391
:1002100082BB0895E0E6F0E080E041E050E0282F66
:100220002770982F969596959695913009F130F014
:100230009230C1F1933009F44FC067C09081913082
:1002400059F49AB3BA0102C0660F771F2A95E2F7F4
:100250009B01292B2ABB59C03AB3BA0102C0660FD1
:10026000771F2A95E2F7962F909593239ABB4DC05E
:100270009081913059F497B3BA0102C0660F771F8D
:100280002A95E2F79B01292B27BB3FC037B3BA0160
:1002900002C0660F771F2A95E2F7962F9095932359
:1002A00097BB33C09081913059F494B3BA0102C026
:1002B000660F771F2A95E2F79B01292B24BB25C0E7
:1002C00034B3BA0102C0660F771F2A95E2F7962F62
:1002D0009095932394BB19C09081913059F491B3B8
:1002E000BA0102C0660F771F2A95E2F79B01292BFE
:1002F00021BB0BC031B3BA0102C0660F771F2A952C
:10030000E2F7962F9095932391BB8F5F32968032C0
:1003100009F085CF0895CF93C82F8BB38F709C2F92
:10032000907F892B8BBB60E089E00E94880061E0B0
:100330008BE00E9488008FE891E00197F1F700C000
:10034000000060E08BE00E9488008FE19EE401974E
:10035000F1F700C000008BB3282F2F7030E1C39F4E
:10036000C0011124822B8BBB60E089E00E948800D1
:1003700061E08BE00E9488008FE891E00197F1F73F
:1003800000C0000060E08BE00E9488008FE39FE1E6
:100390000197F1F700C00000CF91089560E08AE076
:1003A0000E9488002FEF89EF90E02150804090401C
:1003B000E1F700C0000083E30E948B018FE193E02E
:1003C0000197F1F700C0000082E30E948B0188E2F0
:1003D0000E948B0186E00E948B018CE00E948B01C1
:1003E00081E00E948B018FE39FE10197F1F700C04C
:1003F00000000895CF93C82F8BB38F709C2F907FF0
:10040000892B8BBB61E089E00E94880061E08BE072
:100410000E9488008FE891E00197F1F700C000008A
:1004200060E08BE00E9488008FE19EE40197F1F785
:1004300000C000008BB3282F2F7030E1C39FC00194
:100440001124822B8BBB61E089E00E94880061E06F
:100450008BE00E9488008FE891E00197F1F700C0DF
:10046000000060E08BE00E9488008FE39FE101972D
:10047000F1F700C00000CF9108950F931F93CF9321
:10048000FC018081882359F08F01C0E00E94FA01AD
:10049000CF5FF801EC0FF11D80818111F7CFCF9173
:1004A0001F910F910895CF93DF93EC01613019F004
:1004B000623051F011C0842F8F7080680E948B01D0
:1004C000CE010E943D0208C0842F8F70806C0E9474
:1004D0008B01CE010E943D02DF91CF91089581E012
:1004E0000E94510096958795969587950E948F0357
:1004F00008950E940A010E94CE0181E00E947C03BF
:100500000E944A000E945F000E946F028BE00E94DE
:100510008F0390E0FC013197E930F105A8F7E65D23
:10052000FF4F0C94940380EA90E00E943D0240E06B
:1005300062E08CEA90E00E94530261E081E10E9457
:1005400088002FEF83ED90E3215080409040E1F749
:1005500000C0000081E00E948B01D6CF80EA90E0CD
:100560000E943D0244E062E086EB90E00E9453026C
:1005700060E081E10E9488002FEF83ED90E321503D
:1005800080409040E1F700C0000081E00E948B01B4
:10059000BBCF81EC90E00E943D0247E062E085EE37
:1005A00090E00E94530261E082E10E9488002FEFF8
:1005B00083ED90E3215080409040E1F700C00000BF
:1005C00081E00E948B01A0CF81EC90E00E943D026F
:1005D00047E062E08DEF90E00E94530260E082E12C
:1005E0000E9488002FEF83ED90E3215080409040DF
:1005F000E1F700C0000081E00E948B0185CF80ED13
:1006000090E00E943D0247E062E085EE90E00E94AB
:10061000530261E083E10E9488002FEF83ED90E3B5
:10062000215080409040E1F700C0000081E00E942E
:100630008B016ACF80ED90E00E943D0247E062E0CE
:100640008DEF90E00E94530260E083E10E948800F9
:100650002FEF83ED90E3215080409040E1F700C000
:10066000000081E00E948B014FCF8FED90E00E944F
:100670003D0240E062E08DEE90E00E94530281E096
:100680000E9468002FEF83ED90E32150804090405E
:10069000E1F700C0000081E00E948B0135CF8FEDB3
:1006A00090E00E943D0240E062E088EE90E00E940F
:1006B000530282E00E9468002FEF83ED90E3215007
:1006C00080409040E1F700C0000081E00E948B0173
:1006D0001BCF87EF90E00E943D020E947F002FEF2A
:1006E00083ED90E3215080409040E1F700C000008E
:1006F00081E00E948B0108CF882319F0813049F0F6
:10070000089587B3806B87BBBE98C49A6C9A6E9A23
:10071000089587B38F7487BBBE9A6E9A08958FB978
:10072000779BFECF8FB10895EE0FFF1F0590F491D8
:08073000E02D0994F894FFCFBD
:1007380001010001010101010101010101010101A2
:100748000101010101010101010101010101010191
:100758000101010101010101010101010101010181
:100768000101010101010101010101010101010171
:100778004C6976696E6720526F6F6D004C696768C7
:100788007473204F4E004C6967687473204F464657
:1007980000426564726F6F6D204C696768747300FE
:1007A8004B69746368656E204C6967687473004DA3
:1007B8006F746F72204F4E00416E74692D436C6FD9
:1007C800636B77697365004D6F746F72204F46468F
:0207D80000001F
:00000001FF
